{
  "contractName": "Voting",
  "abi": [
    {
      "inputs": [],
      "payable": false,
      "stateMutability": "nonpayable",
      "type": "constructor"
    },
    {
      "anonymous": false,
      "inputs": [
        {
          "indexed": false,
          "internalType": "address",
          "name": "user",
          "type": "address"
        },
        {
          "indexed": false,
          "internalType": "string",
          "name": "selected",
          "type": "string"
        }
      ],
      "name": "EHis",
      "type": "event"
    },
    {
      "anonymous": false,
      "inputs": [
        {
          "indexed": false,
          "internalType": "string",
          "name": "name",
          "type": "string"
        },
        {
          "indexed": false,
          "internalType": "uint256",
          "name": "votes",
          "type": "uint256"
        },
        {
          "indexed": false,
          "internalType": "string",
          "name": "profile",
          "type": "string"
        }
      ],
      "name": "Eprop",
      "type": "event"
    },
    {
      "constant": true,
      "inputs": [
        {
          "internalType": "uint256",
          "name": "",
          "type": "uint256"
        }
      ],
      "name": "History",
      "outputs": [
        {
          "internalType": "address",
          "name": "user",
          "type": "address"
        },
        {
          "internalType": "string",
          "name": "selected",
          "type": "string"
        }
      ],
      "payable": false,
      "stateMutability": "view",
      "type": "function"
    },
    {
      "constant": true,
      "inputs": [
        {
          "internalType": "uint256",
          "name": "",
          "type": "uint256"
        }
      ],
      "name": "arr",
      "outputs": [
        {
          "internalType": "string",
          "name": "name",
          "type": "string"
        },
        {
          "internalType": "uint256",
          "name": "votes",
          "type": "uint256"
        },
        {
          "internalType": "string",
          "name": "profile",
          "type": "string"
        }
      ],
      "payable": false,
      "stateMutability": "view",
      "type": "function"
    },
    {
      "constant": true,
      "inputs": [],
      "name": "till",
      "outputs": [
        {
          "internalType": "uint256",
          "name": "",
          "type": "uint256"
        }
      ],
      "payable": false,
      "stateMutability": "view",
      "type": "function"
    },
    {
      "constant": true,
      "inputs": [],
      "name": "total",
      "outputs": [
        {
          "internalType": "uint256",
          "name": "",
          "type": "uint256"
        }
      ],
      "payable": false,
      "stateMutability": "view",
      "type": "function"
    },
    {
      "constant": false,
      "inputs": [
        {
          "internalType": "string",
          "name": "Name",
          "type": "string"
        },
        {
          "internalType": "string",
          "name": "Profile",
          "type": "string"
        }
      ],
      "name": "add",
      "outputs": [],
      "payable": false,
      "stateMutability": "nonpayable",
      "type": "function"
    },
    {
      "constant": false,
      "inputs": [
        {
          "internalType": "string",
          "name": "Name",
          "type": "string"
        }
      ],
      "name": "Vote",
      "outputs": [],
      "payable": false,
      "stateMutability": "nonpayable",
      "type": "function"
    }
  ],
  "bytecode": "0x60806040526000600355600060045534801561001a57600080fd5b50336000806101000a81548173ffffffffffffffffffffffffffffffffffffffff021916908373ffffffffffffffffffffffffffffffffffffffff1602179055506110dc8061006a6000396000f3fe608060405234801561001057600080fd5b50600436106100625760003560e01c80632ddbd13a14610067578063323082d71461008557806371e5ee5f14610140578063a21f03681461025a578063ebdf86ca14610334578063f07c951f14610486575b600080fd5b61006f6104a4565b6040518082815260200191505060405180910390f35b61013e6004803603602081101561009b57600080fd5b81019080803590602001906401000000008111156100b857600080fd5b8201836020820111156100ca57600080fd5b803590602001918460018302840111640100000000831117156100ec57600080fd5b91908080601f016020809104026020016040519081016040528093929190818152602001838380828437600081840152601f19601f8201169050808301925050505050505091929192905050506104aa565b005b61016c6004803603602081101561015657600080fd5b81019080803590602001909291905050506108d7565b604051808060200184815260200180602001838103835286818151815260200191508051906020019080838360005b838110156101b657808201518184015260208101905061019b565b50505050905090810190601f1680156101e35780820380516001836020036101000a031916815260200191505b50838103825284818151815260200191508051906020019080838360005b8381101561021c578082015181840152602081019050610201565b50505050905090810190601f1680156102495780820380516001836020036101000a031916815260200191505b509550505050505060405180910390f35b6102866004803603602081101561027057600080fd5b8101908080359060200190929190505050610a3e565b604051808373ffffffffffffffffffffffffffffffffffffffff1673ffffffffffffffffffffffffffffffffffffffff16815260200180602001828103825283818151815260200191508051906020019080838360005b838110156102f85780820151818401526020810190506102dd565b50505050905090810190601f1680156103255780820380516001836020036101000a031916815260200191505b50935050505060405180910390f35b6104846004803603604081101561034a57600080fd5b810190808035906020019064010000000081111561036757600080fd5b82018360208201111561037957600080fd5b8035906020019184600183028401116401000000008311171561039b57600080fd5b91908080601f016020809104026020016040519081016040528093929190818152602001838380828437600081840152601f19601f820116905080830192505050505050509192919290803590602001906401000000008111156103fe57600080fd5b82018360208201111561041057600080fd5b8035906020019184600183028401116401000000008311171561043257600080fd5b91908080601f016020809104026020016040519081016040528093929190818152602001838380828437600081840152601f19601f820116905080830192505050505050509192919290505050610b27565b005b61048e610fd4565b6040518082815260200191505060405180910390f35b60035481565b60001515600760003373ffffffffffffffffffffffffffffffffffffffff1673ffffffffffffffffffffffffffffffffffffffff16815260200190815260200160002060009054906101000a900460ff16151514610570576040517f08c379a000000000000000000000000000000000000000000000000000000000815260040180806020018281038252601d8152602001807f547279696e6720746f20766f7465206d6f7265207468616e206f6e657300000081525060200191505060405180910390fd5b6008816040518082805190602001908083835b602083106105a65780518252602082019150602081019050602083039250610583565b6001836020036101000a038019825116818451168082178552505050505050905001915050908152602001604051809103902060008154600101919050819055506008816040518082805190602001908083835b6020831061061d57805182526020820191506020810190506020830392506105fa565b6001836020036101000a03801982511681845116808217855250505050505090500191505090815260200160405180910390205460016005836040518082805190602001908083835b602083106106895780518252602082019150602081019050602083039250610666565b6001836020036101000a038019825116818451168082178552505050505050905001915050908152602001604051809103902054815481106106c757fe5b9060005260206000209060030201600101819055506001600760003373ffffffffffffffffffffffffffffffffffffffff1673ffffffffffffffffffffffffffffffffffffffff16815260200190815260200160002060006101000a81548160ff021916908315150217905550600260405180604001604052803373ffffffffffffffffffffffffffffffffffffffff168152602001838152509080600181540180825580915050906001820390600052602060002090600202016000909192909190915060008201518160000160006101000a81548173ffffffffffffffffffffffffffffffffffffffff021916908373ffffffffffffffffffffffffffffffffffffffff16021790555060208201518160010190805190602001906107ef929190610fda565b5050505060016004600082825401925050819055507f8ca05cce46a42f8055f71df5996e5f8a0409f52e79c3b555e2b8db7f64d6c04a3382604051808373ffffffffffffffffffffffffffffffffffffffff1673ffffffffffffffffffffffffffffffffffffffff16815260200180602001828103825283818151815260200191508051906020019080838360005b8381101561089957808201518184015260208101905061087e565b50505050905090810190601f1680156108c65780820380516001836020036101000a031916815260200191505b50935050505060405180910390a150565b600181815481106108e457fe5b9060005260206000209060030201600091509050806000018054600181600116156101000203166002900480601f0160208091040260200160405190810160405280929190818152602001828054600181600116156101000203166002900480156109905780601f1061096557610100808354040283529160200191610990565b820191906000526020600020905b81548152906001019060200180831161097357829003601f168201915b505050505090806001015490806002018054600181600116156101000203166002900480601f016020809104026020016040519081016040528092919081815260200182805460018160011615610100020316600290048015610a345780601f10610a0957610100808354040283529160200191610a34565b820191906000526020600020905b815481529060010190602001808311610a1757829003601f168201915b5050505050905083565b60028181548110610a4b57fe5b90600052602060002090600202016000915090508060000160009054906101000a900473ffffffffffffffffffffffffffffffffffffffff1690806001018054600181600116156101000203166002900480601f016020809104026020016040519081016040528092919081815260200182805460018160011615610100020316600290048015610b1d5780601f10610af257610100808354040283529160200191610b1d565b820191906000526020600020905b815481529060010190602001808311610b0057829003601f168201915b5050505050905082565b3373ffffffffffffffffffffffffffffffffffffffff166000809054906101000a900473ffffffffffffffffffffffffffffffffffffffff1673ffffffffffffffffffffffffffffffffffffffff1614610bcc576040517f08c379a00000000000000000000000000000000000000000000000000000000081526004018080602001828103825260288152602001806110806028913960400191505060405180910390fd5b600015156006836040518082805190602001908083835b60208310610c065780518252602082019150602081019050602083039250610be3565b6001836020036101000a038019825116818451168082178552505050505050905001915050908152602001604051809103902060009054906101000a900460ff16151514610cbc576040517f08c379a00000000000000000000000000000000000000000000000000000000081526004018080602001828103825260178152602001807f43616e64696461746520616c726561647920657869737400000000000000000081525060200191505060405180910390fd5b6003546005836040518082805190602001908083835b60208310610cf55780518252602082019150602081019050602083039250610cd2565b6001836020036101000a038019825116818451168082178552505050505050905001915050908152602001604051809103902081905550600160405180606001604052808481526020016000815260200183815250908060018154018082558091505090600182039060005260206000209060030201600090919290919091506000820151816000019080519060200190610d91929190610fda565b50602082015181600101556040820151816002019080519060200190610db8929190610fda565b50505050600160036000828254019250508190555060016006836040518082805190602001908083835b60208310610e055780518252602082019150602081019050602083039250610de2565b6001836020036101000a038019825116818451168082178552505050505050905001915050908152602001604051809103902060006101000a81548160ff02191690831515021790555060006008836040518082805190602001908083835b60208310610e875780518252602082019150602081019050602083039250610e64565b6001836020036101000a0380198251168184511680821785525050505050509050019150509081526020016040518091039020819055507f9568b4c81170821ce7f0e6b9aec333c88b478c306cad896d5250580adfb7e2d982600083604051808060200184815260200180602001838103835286818151815260200191508051906020019080838360005b83811015610f2d578082015181840152602081019050610f12565b50505050905090810190601f168015610f5a5780820380516001836020036101000a031916815260200191505b50838103825284818151815260200191508051906020019080838360005b83811015610f93578082015181840152602081019050610f78565b50505050905090810190601f168015610fc05780820380516001836020036101000a031916815260200191505b509550505050505060405180910390a15050565b60045481565b828054600181600116156101000203166002900490600052602060002090601f016020900481019282601f1061101b57805160ff1916838001178555611049565b82800160010185558215611049579182015b8281111561104857825182559160200191906001019061102d565b5b509050611056919061105a565b5090565b61107c91905b80821115611078576000816000905550600101611060565b5090565b9056fe596f7520617265206e6f7420617574686f726973656420746f206164642063616e64696461746573a265627a7a72315820a82019a94ffbd1a5c6bd38b0397e7b359a4e88db9655d6c9f278e275936eb61364736f6c63430005100032",
  "source": "pragma solidity ^0.5.1;\r\n\r\ncontract Voting{\r\n    \r\n    address Owner;\r\n    constructor() public{\r\n        Owner = msg.sender;\r\n    }\r\n    struct prop{\r\n        string name;\r\n        uint256 votes;\r\n        string profile;\r\n    }\r\n    struct His{\r\n        address user;\r\n        string selected;\r\n    }\r\n    event Eprop(\r\n        string name,\r\n        uint256 votes,\r\n        string profile\r\n    );\r\n    event EHis(\r\n        address user,\r\n        string selected\r\n    );\r\n    prop[] public arr;\r\n    His[] public History;\r\n    uint256 public total=0;\r\n    uint256 public till = 0;\r\n    mapping(string => uint256) index;\r\n    mapping(string => bool) present;\r\n    mapping(address => bool) voted;\r\n    mapping(string => uint256) count;\r\n    modifier OnlyOwner{\r\n        require(Owner == msg.sender,\"You are not authorised to add candidates\");\r\n        _;\r\n    }\r\n    function add(string memory Name,string memory Profile) public OnlyOwner{\r\n        require(present[Name] == false,\"Candidate already exist\");\r\n        index[Name] = total;\r\n        arr.push(prop(Name,0,Profile));\r\n        total+=1;\r\n        present[Name] = true;\r\n        count[Name] = 0;\r\n        emit Eprop(Name,0,Profile);\r\n    }\r\n    function Vote(string memory Name) public {\r\n        require(voted[msg.sender] == false,\"Trying to vote more than ones\");\r\n        ++count[Name];\r\n        arr[index[Name]].votes = count[Name];\r\n        voted[msg.sender] = true;\r\n        History.push(His(msg.sender,Name));\r\n        till+=1;\r\n        emit EHis(msg.sender,Name);\r\n    }\r\n}",
  "sourcePath": "C:/Users/HP/OneDrive/Desktop/GIT/Voting-Dapp/src/contracts/Voting.sol",
  "compiler": {
    "name": "solc",
    "version": "0.5.16+commit.9c3226ce.Emscripten.clang"
  },
  "schemaVersion": "3.3.4",
  "updatedAt": "2021-11-03T10:35:04.139Z",
  "networkType": "ethereum",
  "devdoc": {
    "methods": {}
  },
  "userdoc": {
    "methods": {}
  }
}